:020000040800F2
:10000000E808002029020008471F0008591D0008C1
:10001000451F00081F0400083128000800000000E8
:100020000000000000000000000000004B1F00085E
:10003000F504000800000000491F00084D1F0008DB
:10004000430200084302000843020008430200087C
:10005000430200084302000843020008430200086C
:10006000430200084302000843020008430200085C
:10007000430200084302000843020008430200084C
:10008000430200084302000843020008430200083C
:10009000430200084302000843020008430200082C
:1000A000430200084302000843020008430200081C
:1000B000430200084302000843020008430200080C
:1000C00043020008430200084302000843020008FC
:1000D00043020008E5270008430200084302000825
:1000E00043020008430200084302000843020008DC
:1000F00043020008430200084302000843020008CC
:1001000043020008430200084302000843020008BB
:1001100043020008430200084302000843020008AB
:10012000430200084302000843020008430200089B
:1001300021040008430200084302000843020008AB
:10014000430200084302000843020008430200087B
:100150002D04000839040008450400084302000883
:10016000430200084302000843020008430200085B
:100170004302000843020008430200080000000098
:10018000430200084302000800F002F800F03CF8C7
:100190000AA090E8000C82448344AAF10107DA45E2
:1001A00001D100F031F8AFF2090EBAE80F0013F0F8
:1001B000010F18BFFB1A43F001031847DC270000AA
:1001C000FC270000103A24BF78C878C1FAD852073B
:1001D00024BF30C830C144BF04680C6070470000C1
:1001E0000023002400250026103A28BF78C1FBD840
:1001F000520728BF30C148BF0B6070471FB502F0DF
:10020000B5FB1FBD10B510BD00F0CFF81146FFF7CC
:10021000F5FF02F01FFB00F0EDF803B4FFF7F2FF6B
:1002200003BC00F0F5F80000094880470948004782
:10023000FEE7FEE7FEE7FEE7FEE7FEE7FEE7FEE796
:10024000FEE7FEE704480549054A064B70470000F3
:10025000E51F000889010008E8020020E8080020E6
:10026000E8040020E804002053EA020C00F0698052
:100270002DE9F04B4FF00006002B1FBFB3FA83F5BA
:1002800003FA05F424FA05F65E4012BF1643B2FAEB
:1002900082F502FA05F4C5F120051EBF22FA05FC1D
:1002A00044EA0C04203556EA044C4FEA144418BFC3
:1002B000641C4FF000084FF00009904271EB030CF2
:1002C00039D3002919BFB1FA81F701FA07F6B0FA5C
:1002D00080F700FA07F6C7F120071EBF20FA07FCD7
:1002E00046EA0C062037B6FBF4FCA7EB0507103FE7
:1002F00007F01F0BCBF120060CFA0BFB2CFA06F6CD
:1003000044BFB3460026202FA4BF5E464FF0000B2B
:100310005BEA060C08BF4FF0010B19EB0B09ABFBB6
:10032000027C48EB0608C01B06FB02CC0BFB03CC8F
:1003300071EB0C01C1E70B46024641464846BDE859
:10034000F08B13B54FF000004FF00001AFF30080C9
:10035000BDE81C4070474FF0000200B513469446BC
:100360009646203922BFA0E80C50A0E80C50B1F10D
:100370002001BFF4F7AF090728BFA0E80C5048BF21
:100380000CC05DF804EB890028BF40F8042B08BFBF
:10039000704748BF20F8022B11F0804F18BF00F8BB
:1003A000012B7047704770477047754600F02CF876
:1003B000AE4605006946534620F00700854618B052
:1003C00020B5FFF73FFFBDE820404FF000064FF09B
:1003D00000074FF000084FF0000B21F00701AC467A
:1003E000ACE8C009ACE8C009ACE8C009ACE8C00999
:1003F0008D46704710B50446AFF300802046BDE837
:100400001040FFF70ABF0000004870478802002034
:1004100001491820ABBEFEE7260002007047FEE748
:10042000014800F0C5B8000024010020014800F098
:10043000BFB80000C8010020014800F0B9B80000B2
:10044000C4000020014800F0B3B8000028020020DA
:1004500001681823CAB2103AB2FBF3F2054B6FF3EE
:100460000901032A9B5CC36500D9091D8165084603
:10047000704700007629000810B5014600208B69FE
:100480008A6A4FF0C07453B1B3F5005F15D072B1F2
:10049000012A0CD0022A0AD0032A09D104E01AB199
:1004A000012A06D0022A03D1C96AC90100D5012058
:1004B00010BDC96AA142FAD010BD002AF7D0012AA6
:1004C000F2D0022AF3D0032AF3D010BD30B504686D
:1004D000256825F480252560046863608368402BC7
:1004E000036803D099600068C26030BD9A600068FC
:1004F000C16030BD704772B6FEE72DE9F041044699
:10050000876D00F0C9FA064694F8350000250228E8
:1005100006D08020606584F834500120BDE8F08169
:100520002068016821F0160101602068416921F00E
:1005300080014161206C08B9A06C20B1206801687D
:1005400021F0080101602068016821F001010160CB
:100550000CE000F0A1FA801B052807D92020606577
:10056000032084F8350084F83450D7E72068006809
:10057000C007EED194F85C103F208840B86001209D
:1005800084F8350084F834500020C7E790F835101F
:10059000022903D08021416501207047052180F8A0
:1005A00035100068016821F00101016000207047EA
:1005B0002DE9F84304464FF00009CDF80090634858
:1005C0004FF41651A56D0068B0FBF1F72E6894F852
:1005D0005C10082000FA01F131420FD021680A684E
:1005E00052070BD50A6822F004020A6094F85C10E6
:1005F0008840A860606D40F00100606594F85C1070
:100600004FF0010808FA01F0304208D0216849692A
:10061000090604D5A860606D40F00200606594F89A
:100620005C1004208840304208D02168096889079E
:1006300004D5A860606D40F00400606594F85C101B
:1006400010208840304218D021680968090714D565
:10065000A86020680168490304D50068000308D534
:10066000A16C07E00168C90503D4016821F0080105
:100670000160216C09B12046884794F85C10202065
:100680008840304231D021680968C9062DD5A8605C
:1006900094F8350005282068016806D0490347D53D
:1006A000006800031DD4616C1CE021F0160101609C
:1006B0002068416921F080014161206C08B9A06C7B
:1006C00020B12068016821F00801016094F85C10F5
:1006D0003F208840A86084F8358084F83490216DEC
:1006E0001FE0E16B09B120468847606D00282BD0E0
:1006F000606DC00714D0052084F8350020680168BB
:1007000021F0010101600098401C0090B84203D81C
:1007100020680068C007F6D184F8358084F83490EA
:10072000E16C002910D001B02046BDE8F043084735
:100730000168C905D5D4016821F01001016084F871
:10074000358084F83490CCE7BDE8F88310000020B1
:100750002DE9F041044600F09FF906465CB1022005
:1007600084F83500002584F834502068016821F0B1
:10077000010101600DE00120BDE8F08100F08CF97D
:10078000801B052805D920206065032084F83500EA
:10079000F2E720680068C007F0D12268116820489D
:1007A0000140D4E901031843D4E903363343184325
:1007B00063691843A3691843E3691843236A18431C
:1007C0000843616A042903D1D4E90B131943084390
:1007D000106020684069666A20F0070130460E43C9
:1007E000012704280CD1A06A0643E06A40B12046E4
:1007F000FFF742FE20B14020606584F83570BAE70B
:10080000206846612046FFF723FE94F85C203F21D4
:1008100091408160656584F835700020ACE7000088
:100820003F8010F02DE9F0410446866D90F83400C9
:10083000002501280DD0012084F8340094F835708B
:100840000020012F07D084F8340002252846BDE897
:10085000F0810220FBE7022784F8357060652046AE
:10086000FFF734FE94F85C103F208840B0602068A9
:10087000016841F016010160206C20B12068016818
:1008800041F0080101602068016841F00101016048
:10089000DCE700002DE9F84FDFF8BCA100220125BC
:1008A0000AF1040B03264FF00F090BF1040E00BFF1
:1008B0000B6805FA02F42340A34270D10F7907F0C8
:1008C0000307012F01D0022F16D187684FEA420893
:1008D00006FA08FC27EA0C07D1F80CC00CFA08FC51
:1008E0004CEA070CC0F808C04768A7430C79C4F36A
:1008F000001494403C4344600C79E443A4070AD0BC
:10090000C4684FEA420C06FA0CF7BC438F6807FA3A
:100910000CF72743C7600C7904F00304022C12D1B2
:10092000D40800EB840CDCF820405707FF0E09FACE
:1009300007F824EA0804D1F8108008FA07F848EA12
:100940000408CCF8208004684FEA420C06FA0CF741
:10095000BC430F7907F0030707FA0CF7274307603A
:100960004C6814F4403F70D03C4C276847F48047F3
:100970002760246822F0030704F480440094384C74
:1009800007EB040CDCF8084897074FEA177809FAD8
:1009900008F7BC43334FB84202D1002724E054E0AB
:1009A000314FB84201D101271EE0304FB84201D18A
:1009B000022719E02E4FB84201D1032714E02D4F32
:1009C000B84201D104270FE02B4FB84201D10527CF
:1009D0000AE02A4FB84201D1062705E0284FB84265
:1009E00001D1072700E0082707FA08F72743CCF8CA
:1009F0000878DAF800405746D1F804C09C435FEA13
:100A0000CC3C00D51C433C60DBF800405F46D1F88D
:100A100004C09C435FEA8C3C00D51C433C60DEF87C
:100A200000407746D1F804C09C435FEACC2C00D547
:100A30001C433C60084F0C373C68D1F804C09C4311
:100A40005FEA8C2C00D51C433C60521C102AFFF43A
:100A50002FAFBDE8F88F0000003C01404438024051
:100A60000030014000000240000402400008024043
:100A7000000C024000100240001402400018024026
:100A8000001C02400069084000D0012070470AB1F4
:100A9000816170470904FBE70148806870470000E6
:100AA0000400002002488168027811448160704788
:100AB000040000200B4810B5016841F4007101608A
:100AC000016841F480610160016841F48071016056
:100AD000032000F06FF80F2000F006F800F024F873
:100AE000002010BD003C024070B50D4D04464FF48F
:100AF0007A712878B1FBF0F00A490968B1FBF0F08F
:100B000000F00AFB48B9102C07D200222146501EE3
:100B100000F030F800206C6070BD012070BD000056
:100B200004000020100000200A4808B5016841F4C4
:100B300080410160006800F4804000900548001F7B
:100B4000016841F080510160006800F08050009021
:100B500008BD000044380240002809DB00F01F02F5
:100B6000012191404009800000F1E020C0F800110F
:100B700070470000F0B40E4B1B680C46C3F3022311
:100B8000C3F10705042D00D90425191D072901D239
:100B9000002300E0DB1E012606FA05F1491E214074
:100BA00099409E40761E16403143F0BC01F041BE94
:100BB0000CED00E0064900F0070208684FF6FF035D
:100BC000184040EA0220034A1043086070470000C2
:100BD0000CED00E00000FA052DE9F0470E46050097
:100BE00065D0DFF81481D8F80000F7B200F00700F4
:100BF000B04207D288F80070D8F8000000F0070073
:100C0000B04254D128683D4C810712D5400703D526
:100C1000206840F4E05020602878000703D5206861
:100C200040F4604020602068A96820F0F00008438C
:100C300020602878C0072DD030496868083901281D
:100C400012D0022813D0032811D00968890700297F
:100C50002DDA216821F0030101432160FFF71CFF19
:100C6000814641F2883A0EE009688903EFE7096896
:100C70008901ECE7FFF710FFA0EB0901514502D90C
:100C80000320BDE8F0872068696800F00C00B0EB35
:100C9000810FEFD1D8F80010404601F00701B142B2
:100CA00007D90770006800F00700B04201D00120AA
:100CB000E7E72878400705D52068E96820F4E05088
:100CC000084320602878000706D52068296920F4A9
:100CD000604040EAC100206000F038F82168084A0E
:100CE000C1F30311515CC84006490860064800681A
:100CF000FFF7FAFE0020C4E7003C0240083802403B
:100D00007E29000810000020080000200448054942
:100D100000680968044AC1F38221515CC8407047E9
:100D200010000020083802408E29000804480549B8
:100D300000680968044AC1F34231515CC8407047F9
:100D400010000020083802408E290008154810B510
:100D5000006810F00C02144813D04110042A0FD080
:100D6000082A0ED10F4C241F2268236802F03F028C
:100D70005B0207D52068C0F38810A0FB010106E0E4
:100D8000084610BD2168C1F38811A1FB00010023B2
:100D9000FFF76AFA2168C1F30141491C4900B0FB21
:100DA000F1F010BD083802400024F4002DE9F84F9E
:100DB00004006ED02078DFF84C93C007A9F1040539
:100DC0004AD009F104000168C1F38101012908D06A
:100DD0000068C0F3810002280AD1D9F8000040025F
:100DE00006D52868800337D560680028E1D033E055
:100DF0006068B0F5803F10D0B0F5A02F286810D003
:100E000020F480302860286820F480202860606802
:100E1000A8B1FFF741FE06460DE0286840F4803097
:100E2000F4E740F480202860F7E700BFFFF734FEC6
:100E3000801B642873D828688003F7D50CE0FFF77F
:100E40002BFE064605E000BFFFF726FE801B642848
:100E5000F0D828688003F7D42078DFF8AC828007C8
:100E60004FF0000A3ED5A748001D016811F00C0F95
:100E700008D00068C0F3810002280BD1D9F8000027
:100E8000400207D42868800716D5E068012800D101
:100E900012E033E1E068B8B10120C8F80000FFF7C4
:100EA000FBFD064605E000BFFFF7F6FD801B0228AC
:100EB000C0D828688007F7D52868216920F0F80095
:100EC00040EAC10028600DE0C8F800A0FFF7E4FD8B
:100ED000064604E0FFF7E0FD801B02281FD82868C3
:100EE0008007F7D42078000722D5864F87486169AC
:100EF000703771B101210160FFF7CEFD064604E0B5
:100F0000FFF7CAFD801B022809D838688007F7D58B
:100F10000EE0C0F800A0FFF7BFFD064605E082E046
:100F2000FFF7BAFD801B02287DD838688007F7D408
:100F30002078400768D5DFF8CCB100270BF13C0BD7
:100F4000DBF80000C0000BD4DBF8001041F080514A
:100F5000CBF80010DBF80000012700F08050009073
:100F60006B4E3068C00510D4306840F4807030603B
:100F7000FFF792FD009005E0FFF78EFD0099401A03
:100F8000022850D83068C005F6D55E4EA0686C3691
:100F900001280FD00528306810D020F00100306003
:100FA000306820F004003060A068B8B1FFF774FD2D
:100FB00000900FE0306840F00100F4E740F00400DA
:100FC0003060F7E7FFF768FD0099411A41F2883079
:100FD000814266D830688007F4D50EE0FFF75CFDEB
:100FE000009007E0FFF758FD0099411A41F2883060
:100FF000814256D830688007F4D42FB1DBF8001056
:1010000021F08051CBF80010A069C8B33D49091DFB
:101010000968C1F3810102294AD00228504607D04D
:10102000C8F8600000E03CE0FFF736FD04463BE016
:101030004746C8F86000FFF72FFD064605E000BFF1
:10104000FFF72AFD801B02282BD828688001F7D4DF
:10105000D4E907010843A16A2E4A490802EB01417D
:10106000626A41EA8211084394F82C1040EA016157
:10107000C9F8001001203866FFF70EFD044606E0AF
:101080003EE000BFFFF708FD001B022809D82868D2
:101090008001F7D534E000BFFFF7FEFC001B0228FB
:1010A00002D90320BDE8F88F28688001F4D427E036
:1010B0000128F7D0D9F80000E26900F480019142DC
:1010C0001CD1226A00F03F01914217D147F6C0714E
:1010D000626A0140B1EB821F10D1A26A4FF0FF3368
:1010E00000F4403103EB5202B1EB024F06D194F809
:1010F0002C1000F07060B0EB016F01D00120D1E73F
:101100000020CFE70438024000004742800E4742EB
:10111000007000400000FFFF10B5401EB0F1807F5E
:1011200001D3012010BD4FF0E02460610F21601752
:1011300001F07FFB0020A06107202061002010BD8E
:1011400010B590F83C20012A22D0012280F83C20E2
:10115000CA688C6822F4407222434C6822F4806290
:1011600022430C6822F4006222430C6922F480526C
:1011700022434C6922F400522243C969002322F41D
:1011800080420A4301684A6480F83C30002010BD68
:10119000022010BD70B590F83C20012A32D0012405
:1011A00080F83C40022280F83D2003685A689D6820
:1011B00022F070060A6832435A60134B02689A4262
:1011C00014D0B2F1804F11D0104B9A420ED0104B78
:1011D0009A420BD00F4B9A4208D00F4B9A4205D03F
:1011E0000E4B9A4202D00E4B9A4204D1496825F028
:1011F00080031943916080F83D40002180F83C1045
:10120000084670BD022070BD00000140000400408F
:1012100000080040000C0040000401400040014074
:101220000018004010B5040003D094F83D0010B140
:1012300007E0012010BD002084F83C00204600F0AB
:101240001FF8022084F83D00211D206800F0D2FE26
:10125000012084F8460084F83E0084F83F0084F8BA
:10126000400084F8410084F8420084F8430084F888
:10127000440084F8450084F83D00002010BD0000C3
:101280002DE9F84F054600682449884243D1244996
:101290004FF0000A50460A6842F001020A600968ED
:1012A000214C01F0010100911E494FF04066216080
:1012B000C4E9016A04F10C020F154FF400684FF401
:1012C000005982E88103E061206260622046FFF7F6
:1012D0003FFA08B1FFF70FF9EC62A563124C114811
:1012E00060343038C4E9000604F10C015046C4F8FB
:1012F00008A081E88103C4F81CA0C4F820A02046FF
:10130000C4F824A0FFF724FA08B1FFF7F4F82C631F
:10131000AC636C63A563BDE8F88F0000000001407A
:1013200044380240A0640240C400002070B5044666
:1013300090F83C000025012817D0012684F83C6075
:10134000022084F83D002068826822F0770222F4AF
:101350007F4282600868502838D00DDC20284FD0AA
:1013600005DC90B3102811D14AE0022070BD30286E
:1013700046D040280AD13BE060282FD070280DD0FD
:10138000B0F5805F03D0B0F5005F12D0012584F87E
:101390003D60002084F83C00284670BDCB68D1E950
:1013A0000121206800F00CFF2068816841F077017E
:1013B00009E0CB68D1E90121206800F001FF206835
:1013C000816841F480418160E1E719E0CA684968B9
:1013D000206800F0C9FF5021206806E0CA6849680B
:1013E000206800F0D2FF6021206800F0F3FECEE715
:1013F000CA684968206800F0B7FF40212068F4E718
:10140000226801461046F0E770470000F0B587B04B
:10141000044614216846FEF79EFF1449206888425E
:1014200022D113480024016841F0100101600068D6
:10143000022500F0100005904FF40050CDE90005A2
:101440000320CDE902400B4F012669460496384639
:10145000FFF720FA68030090CDE90154CDE9034677
:1014600069463846FFF716FA07B0F0BD00000140A4
:10147000303802400010024070B5044690F83C003D
:1014800000260D4601280FD0012084F83C006AB1E7
:10149000042A1DD0082A2FD00C2A3FD00126002074
:1014A00084F83C00304670BD022070BD206800F01A
:1014B00099FE2068816941F0080181612068816995
:1014C00021F004018161206881692A69114311E0DA
:1014D000206800F0B7FE2068816941F400618161F5
:1014E0002068816921F480618161206881692A69AD
:1014F00041EA02218161D2E7206800F0D9FE20682C
:10150000C16941F00801C1612068C16921F004018D
:10151000C1612068C1692A69114311E0206800F0A7
:10152000FBFE2068C16941F40061C1612068C169A6
:1015300021F48061C1612068C1692A6941EA022100
:10154000C161ACE710B5040003D094F83D0010B1C0
:1015500007E0012010BD002084F83C00204600F088
:101560001EF8022084F83D00211D206800F042FD95
:10157000012084F8460084F83E0084F83F0084F897
:10158000400084F8410084F8420084F8430084F865
:10159000440084F8450084F83D00002010BD7047E9
:1015A00010B50821044800F0E9F8BDE810400C210E
:1015B000014800F0E3B800007C0000207047000004
:1015C0002DE9F04117460D0004464FF000060CD0FF
:1015D000042D11D0082D16D094F84100022819D0FE
:1015E00094F84100012818D07BE094F83E000228CE
:1015F00010D094F83E00F5E794F83F00022809D097
:1016000094F83F00EEE794F84000022802D094F8E6
:101610004000E7E70220BDE8F0810FB9002B60D160
:101620004C494D4ADFF834C102204DB1042D18D089
:10163000082D27D084F841000C2D44D0012687E0E6
:1016400084F83E00606AC163606A39460264606A79
:10165000C0F84CC02268606A3432FFF7E3F888BBF8
:1016600021E084F83F00A06AC163A06A39460264A1
:10167000A06AC0F84CC02268A06A3832FFF7D2F8DE
:1016800000BB15E084F84000E06AC163E06A3946B7
:101690000264E06AC0F84CC02268E06A3C32FFF79E
:1016A000C1F878B909E02068C16841F400711EE012
:1016B0002068C16841F4806119E02068C16841F484
:1016C000006114E00DE0206BC163206B39460264B9
:1016D000206BC0F84CC02268206B4032FFF7A2F8A4
:1016E00008B1012097E72068C16841F48051C160CA
:1016F00001222946206800F0E1FC19492068194AB6
:10170000884201D0904203D1436C43F400434364C8
:101710002068884213D0B0F1804F10D0124988421F
:101720000DD0124988420AD01149884207D0904210
:1017300005D01049884202D00F49884204D18168FF
:1017400001F00701062903D0016841F001010160A1
:10175000304660E7D7200008352100086D210008D9
:101760000000014000040140000400400008004067
:10177000000C0040004001400018004070B50D0012
:1017800004464FF0000607D0042D0CD0082D11D0D0
:101790000C2D16D0012648E02068C16821F40071A4
:1017A000C160606A13E02068C16821F48061C16093
:1017B000A06A0CE02068C16821F40061C160E06AA1
:1017C00005E02068C16821F48051C160206BFEF7FC
:1017D000DDFE00222946206800F070FC184B41F223
:1017E000111120688A10984202D0164B984209D1F4
:1017F000036A0B4206D1036A134203D1436C23F4FC
:10180000004343642068036A0B4206D1016A114217
:1018100003D1016821F00101016001203DB1042DD7
:1018200008D0082D09D084F84100304670BD84F8F6
:101830003E00FAE784F83F00F7E784F84000F4E759
:101840000000014000040140704710B504460068E4
:10185000406994F83D10C0F3C010212911D180B126
:101860002068143050E8001F21F0800140E8001289
:10187000002AF5D1606B08B1FEF73FFE204600F06C
:1018800038FE2068406994F83E10C0F38010222989
:1018900011D180B12068143050E8001F21F04001C0
:1018A00040E80012002AF5D1A06B08B1FEF725FE32
:1018B000204600F0F7FD002010BD7047F8B5016824
:1018C00004460868CA684B6910F00F0F4FF0000516
:1018D00059D003F0010602F49077374365D0C10771
:1018E00005D0D10503D5216C41F0010121644107E8
:1018F00005D5D90703D0216C41F00201216481078D
:1019000005D5D90703D0216C41F0040121640107FA
:1019100007D502F02001314303D0216C41F00801CA
:101920002164216C00293AD0800604D5900602D5A6
:10193000204600F0ECFD20684069216CC0F3801067
:10194000090700D460B3204600F0ACFD2068406970
:10195000400621D52068143050E8001F21F04001D6
:1019600040E80012002AF5D1A06BA8B16C490165CE
:10197000A06BFEF70BFE002811D0A06B016D01B02B
:10198000BDE8F040084783060FD593060DD52046E5
:10199000BDE8F84000F0BBBD2046FFF78EFFF8BD64
:1019A0002046FFF78AFF2564F8BD266B2023012E11
:1019B00079D1C60677D5D60675D5086848680090EF
:1019C0004869400640D5A16B086840680004000CD7
:1019D000EAD0A28D8242E7D9E085C869B0F5807F60
:1019E0002DD020680C3050E8001F21F4807140E8B1
:1019F0000012002AF5D12068143050E8001F21F0B1
:101A0000010140E80012002AF5D12068143050E8A6
:101A1000001F21F0400140E80012002AF5D184F8AF
:101A20003E30256320680C3050E8001F21F0100183
:101A300040E80012002AF5D1A06BFEF75EFDA08DF4
:101A4000E18D401A81B229E0A08DE18D401A81B26A
:101A5000E08D0028A8D00029A6D020680C3050E8DE
:101A6000002F22F4907240E80026002EF5D1206865
:101A7000143050E8002F22F0010240E80026002E2A
:101A8000F5D184F83E30256320680C3050E8002FF3
:101A900022F0100240E80023002BF5D12046FFF78A
:101AA000D3FEF8BDFFE705062BD5150629D594F81A
:101AB0003D002128F5D1A068B0F5805F01D12069F3
:101AC000B0B1206A411C2162216800784860E08C36
:101AD000401E0004000CE084E3D12068C16821F0BE
:101AE0008001C1602068C16841F04001C160D8E751
:101AF000206A0088C0F308004860206A801C2062C9
:101B0000E5E74006CDD55006CBD5CA68204622F081
:101B10004002CA6084F83D3000F01DF9C1E70000C2
:101B2000AF23000870B5040004D094F83D000025F0
:101B300010B106E0012070BD84F83C50204600F052
:101B400023F8242084F83D002068C16821F4005166
:101B5000C160204600F03CFD2068016921F49041FD
:101B600001612068416921F02A0141612068C16852
:101B700041F40051C1602564202084F83D0084F8C0
:101B80003E00002070BD00002DE9F04387B00646FE
:101B900014216846FEF7DFFB3149306888425BD18B
:101BA00030480024016841F010010160006800F035
:101BB000100005902B481438016841F001010160C4
:101BC0000068694600F0010005904FF4C060009085
:101BD0000220CDE90104032003900720049022484D
:101BE000FEF758FE224D21484FF000672860C5E9F6
:101BF00001744FF48068C5E903484FF480796C6143
:101C0000C5E906492C6228466C62FEF7A1FD08B1C1
:101C1000FEF771FCB563AE63154D14486035303086
:101C2000E5E802074020A5E81101114845F81449EC
:101C30006030C5E906492C626C62FEF789FD08B187
:101C4000FEF759FC7563002211462520AE63FEF7AE
:101C500091FF2520FEF780FF07B0BDE8F08300006C
:101C600000100140443802400000024088640240F5
:101C7000C801002090F83E30202B0ED159B152B14E
:101C800090F83C30012B08D0012380F83C30002331
:101C9000036300F023BD01207047022070477047A6
:101CA000704700002DE9F843044690F83D001F46B8
:101CB00016460D4620284CD1C5B1BEB194F83C0063
:101CC000012846D0012084F83C004FF00008C4F8F9
:101CD0004080212084F83D00FEF7DEFEA684814688
:101CE000E684A068B0F5805F03D004E00120BDE881
:101CF000F883206928B12E465FF0000584F83C8007
:101D00000EE00026FAE78021204600F02FFDA0B962
:101D1000AEB116F8010B21684860E08C401EE084EB
:101D2000E08C4B464FF0000200970028EBD14FF0BB
:101D30004001204600F01AFD30B10320D7E735F806
:101D4000020BC0F30800E6E7202084F83D000020E5
:101D5000CDE70220CBE77047FEE70000154808B545
:101D6000016841F4800101600068002200F48000F5
:101D7000009011463C20FEF7FDFE3C20FEF7ECFEF5
:101D8000002211464420FEF7F5FE4420FEF7E4FE53
:101D9000002211464520FEF7EDFE4520FEF7DCFE51
:101DA000002211464620FEF7E5FEBDE80840462029
:101DB000FEF7D2BE3038024030B587B014216846F5
:101DC000FEF7C9FA15480024016841F010010160CE
:101DD000016801F010010591016841F08001016086
:101DE000016801F080010591016841F00101016085
:101DF00000680B4D00F001000590012208212846E3
:101E0000FEF745FE082000900120CDE90104694657
:101E100028460394FEF73EFD07B030BD303802403F
:101E20000010024010B596B000240F941094119445
:101E3000129413941C2168461494FEF78CFA202106
:101E400007A8FEF788FA2E482C49016044F29F113A
:101E5000C0E9011442F20F71C0E9031444618461C6
:101E6000FFF7E0F908B1FEF746FB4FF480500F9002
:101E70000FA92348FFF75AFA08B1FEF73CFB2048A8
:101E8000FFF760FB08B1FEF736FB139413A91C485B
:101E90001494FFF77FF908B1FEF72DFB6020CDE920
:101EA000000402940394049405940822694614489B
:101EB0000694FFF7E1FA08B1FEF71DFB70200090D1
:101EC0000C2269460E48FFF7D7FA08B1FEF713FB5C
:101ED0000794089409944FF400500A94CDE90B40FC
:101EE00007A907480E94FFF72BF908B1FEF703FB8B
:101EF0000348FFF78BFA16B010BD00000000014048
:101F00007C00002010B50E4C0C480C2120604FF4D2
:101F1000E13060600020A060E060C4E90401A061DD
:101F2000E0612046FFF7FEFD08B1FEF7E4FA206805
:101F3000C16841F01001C16010BD000000100140F7
:101F400084010020FEE7FEE770477047FEF7AABD58
:101F500030B593B030216846FEF7FDF914210CA886
:101F6000FEF7F9F91D480025016841F08051016034
:101F7000006800F0805011901948016841F48041D8
:101F800001600068022400F480401190012000905C
:101F9000000401908001CDE9064008AA0420A82190
:101FA00082E813000B906846FEF700FF08B172B696
:101FB000FEE70CA90F2081E831004FF4A0500F90EC
:101FC0004FF48050109005210CA8FEF705FE002864
:101FD00001D072B6FEE713B030BD000040380240B9
:101FE000007000400248016841F4700101607047D0
:101FF00088ED00E0F0B50268254C264D264E274FAF
:10200000274B4FF0804CA04209D0604507D0A84232
:1020100005D0B04203D0B84201D0984204D122F09A
:10202000700E4A6842EA0E02A0421BD0604519D0E9
:10203000A84217D0B04215D0B84213D0984211D060
:10204000184DA8420ED0184DA8420BD0174DA842EB
:1020500008D0174DA84205D0164DA84202D0164D03
:10206000A84203D122F44075CA682A434D6922F080
:1020700080022A4302608A68C2620A688262A042C1
:1020800001D0984201D10969016301214161F0BD8C
:10209000000001400004004000080040000C004027
:1020A000000401400040014000440140004801405C
:1020B00000180040001C00400020004010B501F056
:1020C0001F030121046A99408C430462016A9A400B
:1020D0001143016210BD10B5846B0121626A824216
:1020E00005D12177C069F8B984F83E101CE0A26AD6
:1020F000824206D102222277C069A8B984F83F1033
:1021000012E0E26A824206D104222277C06958B9FD
:1021100084F8401008E0226B824205D10822227721
:10212000C06908B984F841102046FFF739FA002049
:10213000207710BD10B5846B616A814201D1012006
:102140000DE0A16A814201D1022008E0E16A8142EA
:1021500001D1042003E0216B814201D108202077C6
:102160002046FFF72BFA0020207710BD10B5846BB6
:102170000121626A824203D1217784F83E1019E07E
:10218000A26A824204D10220207784F83F1011E035
:10219000E26A824204D10420207784F8401009E0EA
:1021A000226B824204D10820207784F8411001E09C
:1021B00084F83D102046FFF727F90020207710BD56
:1021C00010B5846842EA032224F47F440A43224380
:1021D000826010BD826822F070020A4342F007015B
:1021E00081607047F0B5026A22F001020262036A60
:1021F00042688469124E24F073050C682C4323F066
:1022000002058B682B430D4DA84201D0B04205D189
:1022100023F00807CB683B4323F00403A84201D016
:10222000B04205D14D6922F4407215438A692A43B0
:1022300042608461496841630362F0BD000001406F
:1022400000040140F0B5026A22F010020262026A44
:10225000436884690D6824F4E64444EA05248D68E3
:1022600022F0200242EA05120F4D104EA84201D082
:10227000B04206D1CF6822F0800242EA071222F073
:102280004002A84201D0B04207D14D6923F4406317
:1022900043EA85038D6943EA8503436084614968A5
:1022A00081630262F0BD00000000014000040140B3
:1022B000F0B5026A22F480720262026A4368C4695D
:1022C00022F4007224F073050C68124E2C438D68C2
:1022D00042EA05220E4DA84201D0B04206D1CF6895
:1022E00022F4006242EA072222F48062A84201D06E
:1022F000B04207D14D6923F4405343EA05138D6979
:1023000043EA05134360C4614968C1630262F0BDDA
:10231000000001400004014030B5026A22F48052FE
:102320000262046A4268C3690D6823F4E64343EA23
:1023300005238D6824F4005444EA0534084DA8426E
:1023400002D0084DA84204D14D6922F4804242EAED
:1023500085124260C36149680164046230BD0000B7
:10236000000001400004014010B5036A046A24F033
:1023700001040462846924F0F00444EA021423F0A6
:102380000A020A438461026210BD10B5036A23F099
:10239000100303628369046A23F4704343EA023240
:1023A00024F0A00343EA01118261016210BD10B55F
:1023B000806B0021C185C184FFF77FFA10BD70B525
:1023C000846B2068406994F83D10C0F3C01000256C
:1023D000212904D118B1E584204600F08AF820684C
:1023E000406994F83E10C0F38010222904D118B13E
:1023F000E585204600F056F8206C40F0100020647F
:102400002046FFF75AFA70BD10B50146806B096887
:102410000968C9052FD40021C18501680C3151E834
:10242000002F22F4807241E80023002BF5D10168CF
:10243000143151E8002F22F0010241E80023002B63
:10244000F5D10168143151E8002F22F0400241E833
:102450000023002BF5D1202180F83E10016B0129CB
:1024600009D101680C3151E8002F22F0100241E837
:102470000023002BF5D1016B012902D0FFF70FFCDF
:1024800010BD818DFFF7E0F910BD10B5806B016BB9
:10249000012902D0FFF704FC10BD818D4908FFF728
:1024A000D3F910BD01680C3151E8002F22F490726D
:1024B00041E80023002BF5D10168143151E8002FC9
:1024C00022F0010241E80023002BF5D1016B012924
:1024D00009D101680C3151E8002F22F0100241E8C7
:1024E0000023002BF5D1202180F83E10002101634C
:1024F000704701680C3151E8002F22F0C00241E81A
:102500000023002BF5D1202180F83D10704708B53D
:1025100090F83E10222901D0022008BD82684FF4B5
:1025200080539A4201D1016921B1816A9A421BD03C
:102530004AB10AE00268816A5268C2F308020A805E
:10254000816A891C08E0026972B10268526802F06F
:102550007F020A70816A491C8162C18D491E09048B
:10256000090CC18503D019E002685268F1E70168DF
:10257000CA6822F02002CA600168CA6822F4807228
:10258000CA6001684A6922F001024A61202180F88C
:102590003E10016B012903D0FFF781FB002008BD2D
:1025A0000021016301680C3151E8002F22F0100274
:1025B00041E80023002BF5D101680A68D20602D554
:1025C0000A6849680091818DFFF73EF9E6E700004F
:1025D00070B5044600680169E26821F44051114376
:1025E00001612169A068E2690843616911430843F8
:1025F0002168CA6849F20C639A430243CA602068A2
:102600004169A26921F44071114341613149206857
:10261000884202D03049884202D1FEF787FB01E0B0
:10262000FEF774FBE2690023192164253226B2F516
:10263000004F626828D0A0FB0101930F9200FDF7C4
:1026400013FE0146B0FBF5F06FF01802504301EBAA
:10265000800006EB0010B0FBF5F000F0F002B1FBDB
:10266000F5F002EB0012B1FBF5F06FF018035843E0
:1026700001EB800006EB0010B0FBF5F000F00F005E
:1026800021681044886070BDA0FB010192185B4175
:10269000FDF7EAFD0146B0FBF5F00201B1FBF5F0F4
:1026A0006FF01803584301EB800006EBC000B0FB4D
:1026B000F5F000F0F80002EB4002B1FBF5F05843F2
:1026C00001EB800006EBC000B0FBF5F000F0070066
:1026D000D6E70000001001400014014038B58162C7
:1026E00082850025134604460564222084F83E00B6
:1026F000A26B1B48D063A26B1A481064A26B1A48E5
:10270000D064A06B0A4605652168A06B091DFEF721
:1027100089F8206801684068009084F83C5020687F
:102720000C3050E8001F41F4807140E80012002A8C
:10273000F5D12068143050E8001F41F0010140E855
:102740000012002AF5D12068143050E8001F41F033
:10275000400140E80012002AF5D1002038BD0000F9
:10276000092400088B240008BF2300082DE9F0414C
:10277000984617460E460446069D27E0681C25D05D
:102780002DB1FEF789F9A0EB0800A8421ED92068F8
:102790000C3050E8001F21F4D07140E80012002AEC
:1027A000F5D12068143050E8001F21F0010140E805
:1027B0000012002AF5D1202084F83D0084F83E0064
:1027C000002084F83C000320BDE8F0812068006808
:1027D00036EA000004D00020B842CFD00020F3E752
:1027E0000120F9E70E4808B500680168C1F300113F
:1027F00089B1016841680091016840680848FFF7A5
:1028000024F80848006840680749C0F1640008706F
:10281000064901200870BDE808400148FFF74EB89E
:1028200084010020C80100200000002001000020D9
:10283000FEE70907090E002804DB00F1E02080F81C
:102840000014704700F00F0000F1E02080F8141D24
:10285000704700001FB54FF4FA6000903BA001AB39
:1028600007C883E8070042F20F79FEF723F9FFF764
:102870006FFBFFF7A1FAFFF771FAFFF743FBFFF7D2
:10288000D1FA642234493548FFF7F4F901236A4646
:1028900008213348FEF794FE01236A460C21304894
:1028A000FEF78EFE2C4C2F4D4FF000086878012863
:1028B00020D12878022810D121786078B9FBF1F175
:1028C000652800D96420607048436422B0FBF2F0B0
:1028D000009023480268D162C160414685F80080BB
:1028E00085F80180002002E02154401CC0B22A7803
:1028F0009042F9D91C4F4FF4804631463846FEF7D6
:10290000C1F830308DF8090031463846FEF7BAF884
:10291000024608213846FEF7BAF86423092201A9C5
:102920000E48FFF7BFF901236A4608210C48FEF75D
:1029300047FE01236A460C210948FEF741FE642246
:1029400005490648FFF796F9B0E700004C696E6547
:102950003D3030302C0000001400002084010020A5
:102960007C00002000000020001002404FF040706A
:10297000E1EE100A7047000610160006101600005F
:10298000000000000000010203040607080900001F
:102990000000010203040000B82900080000002024
:1029A00014000000C4010008CC2900081400002015
:1029B000D4080000E0010008000000000100000051
:0C29C00010000000000000000024F400E3
:040000050800018965
:00000001FF
